{
  "_format": "hh-sol-artifact-1",
  "contractName": "TestNFTContract",
  "sourceName": "contracts/testcontract.sol",
  "abi": [
    {
      "inputs": [
        {
          "internalType": "string",
          "name": "baseURI",
          "type": "string"
        }
      ],
      "stateMutability": "nonpayable",
      "type": "constructor"
    },
    {
      "anonymous": false,
      "inputs": [
        {
          "indexed": true,
          "internalType": "address",
          "name": "owner",
          "type": "address"
        },
        {
          "indexed": true,
          "internalType": "address",
          "name": "approved",
          "type": "address"
        },
        {
          "indexed": true,
          "internalType": "uint256",
          "name": "tokenId",
          "type": "uint256"
        }
      ],
      "name": "Approval",
      "type": "event"
    },
    {
      "anonymous": false,
      "inputs": [
        {
          "indexed": true,
          "internalType": "address",
          "name": "owner",
          "type": "address"
        },
        {
          "indexed": true,
          "internalType": "address",
          "name": "operator",
          "type": "address"
        },
        {
          "indexed": false,
          "internalType": "bool",
          "name": "approved",
          "type": "bool"
        }
      ],
      "name": "ApprovalForAll",
      "type": "event"
    },
    {
      "anonymous": false,
      "inputs": [
        {
          "indexed": false,
          "internalType": "address",
          "name": "userAddress",
          "type": "address"
        },
        {
          "indexed": false,
          "internalType": "address payable",
          "name": "relayerAddress",
          "type": "address"
        },
        {
          "indexed": false,
          "internalType": "bytes",
          "name": "functionSignature",
          "type": "bytes"
        }
      ],
      "name": "MetaTransactionExecuted",
      "type": "event"
    },
    {
      "anonymous": false,
      "inputs": [
        {
          "indexed": true,
          "internalType": "address",
          "name": "previousOwner",
          "type": "address"
        },
        {
          "indexed": true,
          "internalType": "address",
          "name": "newOwner",
          "type": "address"
        }
      ],
      "name": "OwnershipTransferred",
      "type": "event"
    },
    {
      "anonymous": false,
      "inputs": [
        {
          "indexed": true,
          "internalType": "address",
          "name": "from",
          "type": "address"
        },
        {
          "indexed": true,
          "internalType": "address",
          "name": "to",
          "type": "address"
        },
        {
          "indexed": true,
          "internalType": "uint256",
          "name": "tokenId",
          "type": "uint256"
        }
      ],
      "name": "Transfer",
      "type": "event"
    },
    {
      "inputs": [],
      "name": "ERC712_VERSION",
      "outputs": [
        {
          "internalType": "string",
          "name": "",
          "type": "string"
        }
      ],
      "stateMutability": "view",
      "type": "function"
    },
    {
      "inputs": [],
      "name": "NFT_price",
      "outputs": [
        {
          "internalType": "uint256",
          "name": "",
          "type": "uint256"
        }
      ],
      "stateMutability": "view",
      "type": "function"
    },
    {
      "inputs": [
        {
          "internalType": "address[]",
          "name": "_recipients",
          "type": "address[]"
        }
      ],
      "name": "airdrop",
      "outputs": [],
      "stateMutability": "nonpayable",
      "type": "function"
    },
    {
      "inputs": [
        {
          "internalType": "address",
          "name": "to",
          "type": "address"
        },
        {
          "internalType": "uint256",
          "name": "tokenId",
          "type": "uint256"
        }
      ],
      "name": "approve",
      "outputs": [],
      "stateMutability": "nonpayable",
      "type": "function"
    },
    {
      "inputs": [
        {
          "internalType": "address",
          "name": "owner",
          "type": "address"
        }
      ],
      "name": "balanceOf",
      "outputs": [
        {
          "internalType": "uint256",
          "name": "",
          "type": "uint256"
        }
      ],
      "stateMutability": "view",
      "type": "function"
    },
    {
      "inputs": [],
      "name": "baseTokenURI",
      "outputs": [
        {
          "internalType": "string",
          "name": "",
          "type": "string"
        }
      ],
      "stateMutability": "view",
      "type": "function"
    },
    {
      "inputs": [
        {
          "internalType": "address",
          "name": "userAddress",
          "type": "address"
        },
        {
          "internalType": "bytes",
          "name": "functionSignature",
          "type": "bytes"
        },
        {
          "internalType": "bytes32",
          "name": "sigR",
          "type": "bytes32"
        },
        {
          "internalType": "bytes32",
          "name": "sigS",
          "type": "bytes32"
        },
        {
          "internalType": "uint8",
          "name": "sigV",
          "type": "uint8"
        }
      ],
      "name": "executeMetaTransaction",
      "outputs": [
        {
          "internalType": "bytes",
          "name": "",
          "type": "bytes"
        }
      ],
      "stateMutability": "payable",
      "type": "function"
    },
    {
      "inputs": [
        {
          "internalType": "uint256",
          "name": "tokenId",
          "type": "uint256"
        }
      ],
      "name": "getApproved",
      "outputs": [
        {
          "internalType": "address",
          "name": "",
          "type": "address"
        }
      ],
      "stateMutability": "view",
      "type": "function"
    },
    {
      "inputs": [],
      "name": "getChainId",
      "outputs": [
        {
          "internalType": "uint256",
          "name": "",
          "type": "uint256"
        }
      ],
      "stateMutability": "view",
      "type": "function"
    },
    {
      "inputs": [],
      "name": "getDomainSeperator",
      "outputs": [
        {
          "internalType": "bytes32",
          "name": "",
          "type": "bytes32"
        }
      ],
      "stateMutability": "view",
      "type": "function"
    },
    {
      "inputs": [
        {
          "internalType": "address",
          "name": "user",
          "type": "address"
        }
      ],
      "name": "getNonce",
      "outputs": [
        {
          "internalType": "uint256",
          "name": "nonce",
          "type": "uint256"
        }
      ],
      "stateMutability": "view",
      "type": "function"
    },
    {
      "inputs": [
        {
          "internalType": "address",
          "name": "owner",
          "type": "address"
        },
        {
          "internalType": "address",
          "name": "operator",
          "type": "address"
        }
      ],
      "name": "isApprovedForAll",
      "outputs": [
        {
          "internalType": "bool",
          "name": "",
          "type": "bool"
        }
      ],
      "stateMutability": "view",
      "type": "function"
    },
    {
      "inputs": [
        {
          "internalType": "uint256",
          "name": "num",
          "type": "uint256"
        },
        {
          "internalType": "address",
          "name": "_to",
          "type": "address"
        }
      ],
      "name": "mintMany",
      "outputs": [],
      "stateMutability": "nonpayable",
      "type": "function"
    },
    {
      "inputs": [
        {
          "internalType": "uint256",
          "name": "_count",
          "type": "uint256"
        }
      ],
      "name": "mintNFT",
      "outputs": [],
      "stateMutability": "payable",
      "type": "function"
    },
    {
      "inputs": [],
      "name": "mintPresale",
      "outputs": [],
      "stateMutability": "payable",
      "type": "function"
    },
    {
      "inputs": [
        {
          "internalType": "uint256",
          "name": "num",
          "type": "uint256"
        },
        {
          "internalType": "address",
          "name": "_to",
          "type": "address"
        }
      ],
      "name": "mintReserved",
      "outputs": [],
      "stateMutability": "nonpayable",
      "type": "function"
    },
    {
      "inputs": [],
      "name": "name",
      "outputs": [
        {
          "internalType": "string",
          "name": "",
          "type": "string"
        }
      ],
      "stateMutability": "view",
      "type": "function"
    },
    {
      "inputs": [],
      "name": "owner",
      "outputs": [
        {
          "internalType": "address",
          "name": "",
          "type": "address"
        }
      ],
      "stateMutability": "view",
      "type": "function"
    },
    {
      "inputs": [
        {
          "internalType": "uint256",
          "name": "tokenId",
          "type": "uint256"
        }
      ],
      "name": "ownerOf",
      "outputs": [
        {
          "internalType": "address",
          "name": "",
          "type": "address"
        }
      ],
      "stateMutability": "view",
      "type": "function"
    },
    {
      "inputs": [],
      "name": "pausePreSale",
      "outputs": [],
      "stateMutability": "nonpayable",
      "type": "function"
    },
    {
      "inputs": [],
      "name": "pauseSale",
      "outputs": [],
      "stateMutability": "nonpayable",
      "type": "function"
    },
    {
      "inputs": [],
      "name": "presaleOpen",
      "outputs": [
        {
          "internalType": "bool",
          "name": "",
          "type": "bool"
        }
      ],
      "stateMutability": "view",
      "type": "function"
    },
    {
      "inputs": [],
      "name": "renounceOwnership",
      "outputs": [],
      "stateMutability": "nonpayable",
      "type": "function"
    },
    {
      "inputs": [
        {
          "internalType": "address",
          "name": "from",
          "type": "address"
        },
        {
          "internalType": "address",
          "name": "to",
          "type": "address"
        },
        {
          "internalType": "uint256",
          "name": "tokenId",
          "type": "uint256"
        }
      ],
      "name": "safeTransferFrom",
      "outputs": [],
      "stateMutability": "nonpayable",
      "type": "function"
    },
    {
      "inputs": [
        {
          "internalType": "address",
          "name": "from",
          "type": "address"
        },
        {
          "internalType": "address",
          "name": "to",
          "type": "address"
        },
        {
          "internalType": "uint256",
          "name": "tokenId",
          "type": "uint256"
        },
        {
          "internalType": "bytes",
          "name": "_data",
          "type": "bytes"
        }
      ],
      "name": "safeTransferFrom",
      "outputs": [],
      "stateMutability": "nonpayable",
      "type": "function"
    },
    {
      "inputs": [],
      "name": "saleOpen",
      "outputs": [
        {
          "internalType": "bool",
          "name": "",
          "type": "bool"
        }
      ],
      "stateMutability": "view",
      "type": "function"
    },
    {
      "inputs": [
        {
          "internalType": "address",
          "name": "operator",
          "type": "address"
        },
        {
          "internalType": "bool",
          "name": "approved",
          "type": "bool"
        }
      ],
      "name": "setApprovalForAll",
      "outputs": [],
      "stateMutability": "nonpayable",
      "type": "function"
    },
    {
      "inputs": [
        {
          "internalType": "string",
          "name": "_uri",
          "type": "string"
        }
      ],
      "name": "setBaseUri",
      "outputs": [],
      "stateMutability": "nonpayable",
      "type": "function"
    },
    {
      "inputs": [
        {
          "internalType": "bytes4",
          "name": "interfaceId",
          "type": "bytes4"
        }
      ],
      "name": "supportsInterface",
      "outputs": [
        {
          "internalType": "bool",
          "name": "",
          "type": "bool"
        }
      ],
      "stateMutability": "view",
      "type": "function"
    },
    {
      "inputs": [],
      "name": "symbol",
      "outputs": [
        {
          "internalType": "string",
          "name": "",
          "type": "string"
        }
      ],
      "stateMutability": "view",
      "type": "function"
    },
    {
      "inputs": [
        {
          "internalType": "uint256",
          "name": "index",
          "type": "uint256"
        }
      ],
      "name": "tokenByIndex",
      "outputs": [
        {
          "internalType": "uint256",
          "name": "",
          "type": "uint256"
        }
      ],
      "stateMutability": "view",
      "type": "function"
    },
    {
      "inputs": [
        {
          "internalType": "address",
          "name": "owner",
          "type": "address"
        },
        {
          "internalType": "uint256",
          "name": "index",
          "type": "uint256"
        }
      ],
      "name": "tokenOfOwnerByIndex",
      "outputs": [
        {
          "internalType": "uint256",
          "name": "",
          "type": "uint256"
        }
      ],
      "stateMutability": "view",
      "type": "function"
    },
    {
      "inputs": [
        {
          "internalType": "uint256",
          "name": "_tokenId",
          "type": "uint256"
        }
      ],
      "name": "tokenURI",
      "outputs": [
        {
          "internalType": "string",
          "name": "",
          "type": "string"
        }
      ],
      "stateMutability": "view",
      "type": "function"
    },
    {
      "inputs": [],
      "name": "totalSupply",
      "outputs": [
        {
          "internalType": "uint256",
          "name": "",
          "type": "uint256"
        }
      ],
      "stateMutability": "view",
      "type": "function"
    },
    {
      "inputs": [
        {
          "internalType": "address",
          "name": "from",
          "type": "address"
        },
        {
          "internalType": "address",
          "name": "to",
          "type": "address"
        },
        {
          "internalType": "uint256",
          "name": "tokenId",
          "type": "uint256"
        }
      ],
      "name": "transferFrom",
      "outputs": [],
      "stateMutability": "nonpayable",
      "type": "function"
    },
    {
      "inputs": [
        {
          "internalType": "address",
          "name": "newOwner",
          "type": "address"
        }
      ],
      "name": "transferOwnership",
      "outputs": [],
      "stateMutability": "nonpayable",
      "type": "function"
    },
    {
      "inputs": [],
      "name": "unpausePreSale",
      "outputs": [],
      "stateMutability": "nonpayable",
      "type": "function"
    },
    {
      "inputs": [],
      "name": "unpauseSale",
      "outputs": [],
      "stateMutability": "nonpayable",
      "type": "function"
    },
    {
      "inputs": [
        {
          "internalType": "address",
          "name": "_owner",
          "type": "address"
        }
      ],
      "name": "walletOfOwner",
      "outputs": [
        {
          "internalType": "uint256[]",
          "name": "",
          "type": "uint256[]"
        }
      ],
      "stateMutability": "view",
      "type": "function"
    },
    {
      "inputs": [],
      "name": "withdraw",
      "outputs": [],
      "stateMutability": "nonpayable",
      "type": "function"
    }
  ],
  "bytecode": "0x60806040526000600a60006101000a81548160ff0219169083151502179055506122b86010556103e860115561025860125560146013556000601560006101000a81548160ff0219169083151502179055506000601560016101000a81548160ff02191690831515021790555066b1a2bc2ec500006016556040518060400160405280600881526020017f54455354204e465400000000000000000000000000000000000000000000000081525060179080519060200190620000c492919062000656565b506040518060400160405280600481526020017f544e465400000000000000000000000000000000000000000000000000000000815250601890805190602001906200011292919062000656565b503480156200012057600080fd5b506040516200623738038062006237833981810160405281019062000146919062000784565b60178054620001559062000981565b80601f0160208091040260200160405190810160405280929190818152602001828054620001839062000981565b8015620001d45780601f10620001a857610100808354040283529160200191620001d4565b820191906000526020600020905b815481529060010190602001808311620001b657829003601f168201915b505050505060188054620001e89062000981565b80601f0160208091040260200160405190810160405280929190818152602001828054620002169062000981565b8015620002675780601f106200023b5761010080835404028352916020019162000267565b820191906000526020600020905b8154815290600101906020018083116200024957829003601f168201915b505050505081600090805190602001906200028492919062000656565b5080600190805190602001906200029d92919062000656565b505050620002c0620002b46200038360201b60201c565b6200039f60201b60201c565b8060149080519060200190620002d892919062000656565b506200037c60178054620002ec9062000981565b80601f01602080910402602001604051908101604052809291908181526020018280546200031a9062000981565b80156200036b5780601f106200033f576101008083540402835291602001916200036b565b820191906000526020600020905b8154815290600101906020018083116200034d57829003601f168201915b50505050506200046560201b60201c565b5062000a99565b60006200039a620004e760201b6200237b1760201c565b905090565b6000600d60009054906101000a900473ffffffffffffffffffffffffffffffffffffffff16905081600d60006101000a81548173ffffffffffffffffffffffffffffffffffffffff021916908373ffffffffffffffffffffffffffffffffffffffff1602179055508173ffffffffffffffffffffffffffffffffffffffff168173ffffffffffffffffffffffffffffffffffffffff167f8be0079c531659141344cd1fd0a4f28419497f9722a3daafe3b4186f6b6457e060405160405180910390a35050565b600a60009054906101000a900460ff1615620004b8576040517f08c379a0000000000000000000000000000000000000000000000000000000008152600401620004af906200087b565b60405180910390fd5b620004c9816200059a60201b60201c565b6001600a60006101000a81548160ff02191690831515021790555050565b60003073ffffffffffffffffffffffffffffffffffffffff163373ffffffffffffffffffffffffffffffffffffffff1614156200059357600080368080601f016020809104026020016040519081016040528093929190818152602001838380828437600081840152601f19601f820116905080830192505050505050509050600080369050905073ffffffffffffffffffffffffffffffffffffffff81830151169250505062000597565b3390505b90565b6040518060800160405280604f8152602001620061e8604f91398051906020012081805190602001206040518060400160405280600181526020017f31000000000000000000000000000000000000000000000000000000000000008152508051906020012030620006116200064960201b60201c565b60001b6040516020016200062a9594939291906200081e565b60405160208183030381529060405280519060200120600b8190555050565b6000804690508091505090565b828054620006649062000981565b90600052602060002090601f016020900481019282620006885760008555620006d4565b82601f10620006a357805160ff1916838001178555620006d4565b82800160010185558215620006d4579182015b82811115620006d3578251825591602001919060010190620006b6565b5b509050620006e39190620006e7565b5090565b5b8082111562000702576000816000905550600101620006e8565b5090565b60006200071d6200071784620008c6565b6200089d565b9050828152602081018484840111156200073c576200073b62000a50565b5b620007498482856200094b565b509392505050565b600082601f83011262000769576200076862000a4b565b5b81516200077b84826020860162000706565b91505092915050565b6000602082840312156200079d576200079c62000a5a565b5b600082015167ffffffffffffffff811115620007be57620007bd62000a55565b5b620007cc8482850162000751565b91505092915050565b620007e0816200090d565b82525050565b620007f18162000921565b82525050565b600062000806600e83620008fc565b9150620008138262000a70565b602082019050919050565b600060a082019050620008356000830188620007e6565b620008446020830187620007e6565b620008536040830186620007e6565b620008626060830185620007d5565b620008716080830184620007e6565b9695505050505050565b600060208201905081810360008301526200089681620007f7565b9050919050565b6000620008a9620008bc565b9050620008b78282620009b7565b919050565b6000604051905090565b600067ffffffffffffffff821115620008e457620008e362000a1c565b5b620008ef8262000a5f565b9050602081019050919050565b600082825260208201905092915050565b60006200091a826200092b565b9050919050565b6000819050919050565b600073ffffffffffffffffffffffffffffffffffffffff82169050919050565b60005b838110156200096b5780820151818401526020810190506200094e565b838111156200097b576000848401525b50505050565b600060028204905060018216806200099a57607f821691505b60208210811415620009b157620009b0620009ed565b5b50919050565b620009c28262000a5f565b810181811067ffffffffffffffff82111715620009e457620009e362000a1c565b5b80604052505050565b7f4e487b7100000000000000000000000000000000000000000000000000000000600052602260045260246000fd5b7f4e487b7100000000000000000000000000000000000000000000000000000000600052604160045260246000fd5b600080fd5b600080fd5b600080fd5b600080fd5b6000601f19601f8301169050919050565b7f616c726561647920696e69746564000000000000000000000000000000000000600082015250565b61573f8062000aa96000396000f3fe60806040526004361061023b5760003560e01c80636352211e1161012e578063a22cb465116100ab578063d547cfb71161006f578063d547cfb71461082f578063d71ac32e1461085a578063db59969814610885578063e985e9c51461088f578063f2fde38b146108cc5761023b565b8063a22cb4651461075e578063b88d4fde14610787578063bb33d729146107b0578063bee6348a146107c7578063c87b56dd146107f25761023b565b80638da5cb5b116100f25780638da5cb5b1461069857806392642744146106c357806395d89b41146106df57806399288dbb1461070a578063a0bcfc7f146107355761023b565b80636352211e146105b557806370a08231146105f2578063715018a61461062f578063729ad39e14610646578063748973151461066f5761023b565b80632f745c59116101bc5780634357da58116101805780634357da58146104e4578063438b6300146104fb5780634f6ccce71461053857806355367ba914610575578063631bbbba1461058c5761023b565b80632f745c59146104255780633408e470146104625780633ccfd60b1461048d57806342842e0e146104a457806342d1e8f9146104cd5761023b565b80630f7e5970116102035780630f7e59701461033e57806318160ddd1461036957806320379ee51461039457806323b872dd146103bf5780632d0335ab146103e85761023b565b806301ffc9a71461024057806306fdde031461027d578063081812fc146102a8578063095ea7b3146102e55780630c53c51c1461030e575b600080fd5b34801561024c57600080fd5b5061026760048036038101906102629190613b14565b6108f5565b6040516102749190614445565b60405180910390f35b34801561028957600080fd5b5061029261096f565b60405161029f9190614527565b60405180910390f35b3480156102b457600080fd5b506102cf60048036038101906102ca9190613bb7565b610a01565b6040516102dc919061437e565b60405180910390f35b3480156102f157600080fd5b5061030c60048036038101906103079190613a87565b610a86565b005b610328600480360381019061032391906139f0565b610b9e565b6040516103359190614505565b60405180910390f35b34801561034a57600080fd5b50610353610e10565b6040516103609190614527565b60405180910390f35b34801561037557600080fd5b5061037e610e49565b60405161038b9190614929565b60405180910390f35b3480156103a057600080fd5b506103a9610e56565b6040516103b69190614460565b60405180910390f35b3480156103cb57600080fd5b506103e660048036038101906103e191906138da565b610e60565b005b3480156103f457600080fd5b5061040f600480360381019061040a919061386d565b610ec0565b60405161041c9190614929565b60405180910390f35b34801561043157600080fd5b5061044c60048036038101906104479190613a87565b610f09565b6040516104599190614929565b60405180910390f35b34801561046e57600080fd5b50610477610fae565b6040516104849190614929565b60405180910390f35b34801561049957600080fd5b506104a2610fbb565b005b3480156104b057600080fd5b506104cb60048036038101906104c691906138da565b611087565b005b3480156104d957600080fd5b506104e26110a7565b005b3480156104f057600080fd5b506104f9611140565b005b34801561050757600080fd5b50610522600480360381019061051d919061386d565b6111d9565b60405161052f9190614423565b60405180910390f35b34801561054457600080fd5b5061055f600480360381019061055a9190613bb7565b611287565b60405161056c9190614929565b60405180910390f35b34801561058157600080fd5b5061058a6112f8565b005b34801561059857600080fd5b506105b360048036038101906105ae9190613be4565b611391565b005b3480156105c157600080fd5b506105dc60048036038101906105d79190613bb7565b611500565b6040516105e9919061437e565b60405180910390f35b3480156105fe57600080fd5b506106196004803603810190610614919061386d565b6115b2565b6040516106269190614929565b60405180910390f35b34801561063b57600080fd5b5061064461166a565b005b34801561065257600080fd5b5061066d60048036038101906106689190613ac7565b6116f2565b005b34801561067b57600080fd5b5061069660048036038101906106919190613be4565b611915565b005b3480156106a457600080fd5b506106ad611a72565b6040516106ba919061437e565b60405180910390f35b6106dd60048036038101906106d89190613bb7565b611a9c565b005b3480156106eb57600080fd5b506106f4611c3f565b6040516107019190614527565b60405180910390f35b34801561071657600080fd5b5061071f611cd1565b60405161072c9190614445565b60405180910390f35b34801561074157600080fd5b5061075c60048036038101906107579190613b6e565b611ce4565b005b34801561076a57600080fd5b50610785600480360381019061078091906139b0565b611d7a565b005b34801561079357600080fd5b506107ae60048036038101906107a9919061392d565b611efb565b005b3480156107bc57600080fd5b506107c5611f5d565b005b3480156107d357600080fd5b506107dc611ff6565b6040516107e99190614445565b60405180910390f35b3480156107fe57600080fd5b5061081960048036038101906108149190613bb7565b612009565b6040516108269190614527565b60405180910390f35b34801561083b57600080fd5b5061084461203d565b6040516108519190614527565b60405180910390f35b34801561086657600080fd5b5061086f6120cb565b60405161087c9190614929565b60405180910390f35b61088d6120d1565b005b34801561089b57600080fd5b506108b660048036038101906108b1919061389a565b6121ef565b6040516108c39190614445565b60405180910390f35b3480156108d857600080fd5b506108f360048036038101906108ee919061386d565b612283565b005b60007f780e9d63000000000000000000000000000000000000000000000000000000007bffffffffffffffffffffffffffffffffffffffffffffffffffffffff1916827bffffffffffffffffffffffffffffffffffffffffffffffffffffffff1916148061096857506109678261242c565b5b9050919050565b60606000805461097e90614c5b565b80601f01602080910402602001604051908101604052809291908181526020018280546109aa90614c5b565b80156109f75780601f106109cc576101008083540402835291602001916109f7565b820191906000526020600020905b8154815290600101906020018083116109da57829003601f168201915b5050505050905090565b6000610a0c8261250e565b610a4b576040517f08c379a0000000000000000000000000000000000000000000000000000000008152600401610a4290614789565b60405180910390fd5b6004600083815260200190815260200160002060009054906101000a900473ffffffffffffffffffffffffffffffffffffffff169050919050565b6000610a9182611500565b90508073ffffffffffffffffffffffffffffffffffffffff168373ffffffffffffffffffffffffffffffffffffffff161415610b02576040517f08c379a0000000000000000000000000000000000000000000000000000000008152600401610af990614809565b60405180910390fd5b8073ffffffffffffffffffffffffffffffffffffffff16610b2161257a565b73ffffffffffffffffffffffffffffffffffffffff161480610b505750610b4f81610b4a61257a565b6121ef565b5b610b8f576040517f08c379a0000000000000000000000000000000000000000000000000000000008152600401610b86906146c9565b60405180910390fd5b610b998383612589565b505050565b606060006040518060600160405280600c60008a73ffffffffffffffffffffffffffffffffffffffff1673ffffffffffffffffffffffffffffffffffffffff1681526020019081526020016000205481526020018873ffffffffffffffffffffffffffffffffffffffff168152602001878152509050610c218782878787612642565b610c60576040517f08c379a0000000000000000000000000000000000000000000000000000000008152600401610c57906147e9565b60405180910390fd5b610cb36001600c60008a73ffffffffffffffffffffffffffffffffffffffff1673ffffffffffffffffffffffffffffffffffffffff1681526020019081526020016000205461274b90919063ffffffff16565b600c60008973ffffffffffffffffffffffffffffffffffffffff1673ffffffffffffffffffffffffffffffffffffffff168152602001908152602001600020819055507f5845892132946850460bff5a0083f71031bc5bf9aadcd40f1de79423eac9b10b873388604051610d2993929190614399565b60405180910390a16000803073ffffffffffffffffffffffffffffffffffffffff16888a604051602001610d5e9291906142fb565b604051602081830303815290604052604051610d7a91906142e4565b6000604051808303816000865af19150503d8060008114610db7576040519150601f19603f3d011682016040523d82523d6000602084013e610dbc565b606091505b509150915081610e01576040517f08c379a0000000000000000000000000000000000000000000000000000000008152600401610df890614609565b60405180910390fd5b80935050505095945050505050565b6040518060400160405280600181526020017f310000000000000000000000000000000000000000000000000000000000000081525081565b6000600880549050905090565b6000600b54905090565b610e71610e6b61257a565b82612761565b610eb0576040517f08c379a0000000000000000000000000000000000000000000000000000000008152600401610ea790614889565b60405180910390fd5b610ebb83838361283f565b505050565b6000600c60008373ffffffffffffffffffffffffffffffffffffffff1673ffffffffffffffffffffffffffffffffffffffff168152602001908152602001600020549050919050565b6000610f14836115b2565b8210610f55576040517f08c379a0000000000000000000000000000000000000000000000000000000008152600401610f4c90614589565b60405180910390fd5b600660008473ffffffffffffffffffffffffffffffffffffffff1673ffffffffffffffffffffffffffffffffffffffff168152602001908152602001600020600083815260200190815260200160002054905092915050565b6000804690508091505090565b610fc361257a565b73ffffffffffffffffffffffffffffffffffffffff16610fe1611a72565b73ffffffffffffffffffffffffffffffffffffffff1614611037576040517f08c379a000000000000000000000000000000000000000000000000000000000815260040161102e906147a9565b60405180910390fd5b61103f611a72565b73ffffffffffffffffffffffffffffffffffffffff166108fc479081150290604051600060405180830381858888f19350505050158015611084573d6000803e3d6000fd5b50565b6110a283838360405180602001604052806000815250611efb565b505050565b6110af61257a565b73ffffffffffffffffffffffffffffffffffffffff166110cd611a72565b73ffffffffffffffffffffffffffffffffffffffff1614611123576040517f08c379a000000000000000000000000000000000000000000000000000000000815260040161111a906147a9565b60405180910390fd5b6001601560016101000a81548160ff021916908315150217905550565b61114861257a565b73ffffffffffffffffffffffffffffffffffffffff16611166611a72565b73ffffffffffffffffffffffffffffffffffffffff16146111bc576040517f08c379a00000000000000000000000000000000000000000000000000000000081526004016111b3906147a9565b60405180910390fd5b6000601560016101000a81548160ff021916908315150217905550565b606060006111e6836115b2565b905060008167ffffffffffffffff81111561120457611203614e51565b5b6040519080825280602002602001820160405280156112325781602001602082028036833780820191505090505b50905060005b8281101561127c5761124a8582610f09565b82828151811061125d5761125c614e22565b5b602002602001018181525050808061127490614cbe565b915050611238565b508092505050919050565b6000611291610e49565b82106112d2576040517f08c379a00000000000000000000000000000000000000000000000000000000081526004016112c9906148a9565b60405180910390fd5b600882815481106112e6576112e5614e22565b5b90600052602060002001549050919050565b61130061257a565b73ffffffffffffffffffffffffffffffffffffffff1661131e611a72565b73ffffffffffffffffffffffffffffffffffffffff1614611374576040517f08c379a000000000000000000000000000000000000000000000000000000000815260040161136b906147a9565b60405180910390fd5b6000601560006101000a81548160ff021916908315150217905550565b61139961257a565b73ffffffffffffffffffffffffffffffffffffffff166113b7611a72565b73ffffffffffffffffffffffffffffffffffffffff161461140d576040517f08c379a0000000000000000000000000000000000000000000000000000000008152600401611404906147a9565b60405180910390fd5b6010548261141b600e612a9b565b6114259190614a67565b10611465576040517f08c379a000000000000000000000000000000000000000000000000000000000815260040161145c906148c9565b60405180910390fd5b601254611472600f612a9b565b106114b2576040517f08c379a00000000000000000000000000000000000000000000000000000000081526004016114a990614749565b60405180910390fd5b60005b828110156114fb5760006114c7612aa9565b90506114d38382612ac6565b6114dd600e612c94565b6114e7600f612c94565b5080806114f390614cbe565b9150506114b5565b505050565b6000806002600084815260200190815260200160002060009054906101000a900473ffffffffffffffffffffffffffffffffffffffff169050600073ffffffffffffffffffffffffffffffffffffffff168173ffffffffffffffffffffffffffffffffffffffff1614156115a9576040517f08c379a00000000000000000000000000000000000000000000000000000000081526004016115a090614729565b60405180910390fd5b80915050919050565b60008073ffffffffffffffffffffffffffffffffffffffff168273ffffffffffffffffffffffffffffffffffffffff161415611623576040517f08c379a000000000000000000000000000000000000000000000000000000000815260040161161a90614709565b60405180910390fd5b600360008373ffffffffffffffffffffffffffffffffffffffff1673ffffffffffffffffffffffffffffffffffffffff168152602001908152602001600020549050919050565b61167261257a565b73ffffffffffffffffffffffffffffffffffffffff16611690611a72565b73ffffffffffffffffffffffffffffffffffffffff16146116e6576040517f08c379a00000000000000000000000000000000000000000000000000000000081526004016116dd906147a9565b60405180910390fd5b6116f06000612caa565b565b6116fa61257a565b73ffffffffffffffffffffffffffffffffffffffff16611718611a72565b73ffffffffffffffffffffffffffffffffffffffff161461176e576040517f08c379a0000000000000000000000000000000000000000000000000000000008152600401611765906147a9565b60405180910390fd5b6010548282905061177f600e612a9b565b6117899190614a67565b106117c9576040517f08c379a00000000000000000000000000000000000000000000000000000000081526004016117c0906146e9565b60405180910390fd5b6000828290501415611810576040517f08c379a000000000000000000000000000000000000000000000000000000000815260040161180790614549565b60405180910390fd5b60005b8282905081101561191057600073ffffffffffffffffffffffffffffffffffffffff1683838381811061184957611848614e22565b5b905060200201602081019061185e919061386d565b73ffffffffffffffffffffffffffffffffffffffff1614156118b5576040517f08c379a00000000000000000000000000000000000000000000000000000000081526004016118ac906145a9565b60405180910390fd5b60006118bf612aa9565b90506118f28484848181106118d7576118d6614e22565b5b90506020020160208101906118ec919061386d565b82612ac6565b6118fc600e612c94565b50808061190890614cbe565b915050611813565b505050565b61191d61257a565b73ffffffffffffffffffffffffffffffffffffffff1661193b611a72565b73ffffffffffffffffffffffffffffffffffffffff1614611991576040517f08c379a0000000000000000000000000000000000000000000000000000000008152600401611988906147a9565b60405180910390fd5b6010548261199f600e612a9b565b6119a99190614a67565b106119e9576040517f08c379a00000000000000000000000000000000000000000000000000000000081526004016119e0906148c9565b60405180910390fd5b601354821115611a2e576040517f08c379a0000000000000000000000000000000000000000000000000000000008152600401611a25906148e9565b60405180910390fd5b60005b82811015611a6d576000611a43612aa9565b9050611a4f8382612ac6565b611a59600e612c94565b508080611a6590614cbe565b915050611a31565b505050565b6000600d60009054906101000a900473ffffffffffffffffffffffffffffffffffffffff16905090565b60011515601560009054906101000a900460ff16151514611af2576040517f08c379a0000000000000000000000000000000000000000000000000000000008152600401611ae990614829565b60405180910390fd5b60105481611b00600e612a9b565b611b0a9190614a67565b10611b4a576040517f08c379a0000000000000000000000000000000000000000000000000000000008152600401611b41906148c9565b60405180910390fd5b601354811115611b8f576040517f08c379a0000000000000000000000000000000000000000000000000000000008152600401611b8690614569565b60405180910390fd5b601154611b9c600e612a9b565b1015611bab5760019050611bfc565b80601654611bb99190614aee565b341015611bfb576040517f08c379a0000000000000000000000000000000000000000000000000000000008152600401611bf290614849565b60405180910390fd5b5b60005b81811015611c3b576000611c11612aa9565b9050611c1d3382612ac6565b611c27600e612c94565b508080611c3390614cbe565b915050611bff565b5050565b606060018054611c4e90614c5b565b80601f0160208091040260200160405190810160405280929190818152602001828054611c7a90614c5b565b8015611cc75780601f10611c9c57610100808354040283529160200191611cc7565b820191906000526020600020905b815481529060010190602001808311611caa57829003601f168201915b5050505050905090565b601560009054906101000a900460ff1681565b611cec61257a565b73ffffffffffffffffffffffffffffffffffffffff16611d0a611a72565b73ffffffffffffffffffffffffffffffffffffffff1614611d60576040517f08c379a0000000000000000000000000000000000000000000000000000000008152600401611d57906147a9565b60405180910390fd5b8060149080519060200190611d76929190613601565b5050565b611d8261257a565b73ffffffffffffffffffffffffffffffffffffffff168273ffffffffffffffffffffffffffffffffffffffff161415611df0576040517f08c379a0000000000000000000000000000000000000000000000000000000008152600401611de790614669565b60405180910390fd5b8060056000611dfd61257a565b73ffffffffffffffffffffffffffffffffffffffff1673ffffffffffffffffffffffffffffffffffffffff16815260200190815260200160002060008473ffffffffffffffffffffffffffffffffffffffff1673ffffffffffffffffffffffffffffffffffffffff16815260200190815260200160002060006101000a81548160ff0219169083151502179055508173ffffffffffffffffffffffffffffffffffffffff16611eaa61257a565b73ffffffffffffffffffffffffffffffffffffffff167f17307eab39ab6107e8899845ad3d59bd9653f200f220920489ca2b5937696c3183604051611eef9190614445565b60405180910390a35050565b611f0c611f0661257a565b83612761565b611f4b576040517f08c379a0000000000000000000000000000000000000000000000000000000008152600401611f4290614889565b60405180910390fd5b611f5784848484612d70565b50505050565b611f6561257a565b73ffffffffffffffffffffffffffffffffffffffff16611f83611a72565b73ffffffffffffffffffffffffffffffffffffffff1614611fd9576040517f08c379a0000000000000000000000000000000000000000000000000000000008152600401611fd0906147a9565b60405180910390fd5b6001601560006101000a81548160ff021916908315150217905550565b601560019054906101000a900460ff1681565b6060601461201683612dcc565b604051602001612027929190614323565b6040516020818303038152906040529050919050565b6014805461204a90614c5b565b80601f016020809104026020016040519081016040528092919081815260200182805461207690614c5b565b80156120c35780601f10612098576101008083540402835291602001916120c3565b820191906000526020600020905b8154815290600101906020018083116120a657829003601f168201915b505050505081565b60165481565b60011515601560019054906101000a900460ff16151514612127576040517f08c379a000000000000000000000000000000000000000000000000000000000815260040161211e90614869565b60405180910390fd5b601154612134600f612a9b565b61213e600e612a9b565b6121489190614b48565b10612188576040517f08c379a000000000000000000000000000000000000000000000000000000000815260040161217f90614909565b60405180910390fd5b60165434146121cc576040517f08c379a00000000000000000000000000000000000000000000000000000000081526004016121c390614849565b60405180910390fd5b60006121d6612aa9565b90506121e23382612ac6565b6121ec600e612c94565b50565b6000600560008473ffffffffffffffffffffffffffffffffffffffff1673ffffffffffffffffffffffffffffffffffffffff16815260200190815260200160002060008373ffffffffffffffffffffffffffffffffffffffff1673ffffffffffffffffffffffffffffffffffffffff16815260200190815260200160002060009054906101000a900460ff16905092915050565b61228b61257a565b73ffffffffffffffffffffffffffffffffffffffff166122a9611a72565b73ffffffffffffffffffffffffffffffffffffffff16146122ff576040517f08c379a00000000000000000000000000000000000000000000000000000000081526004016122f6906147a9565b60405180910390fd5b600073ffffffffffffffffffffffffffffffffffffffff168173ffffffffffffffffffffffffffffffffffffffff16141561236f576040517f08c379a0000000000000000000000000000000000000000000000000000000008152600401612366906145e9565b60405180910390fd5b61237881612caa565b50565b60003073ffffffffffffffffffffffffffffffffffffffff163373ffffffffffffffffffffffffffffffffffffffff16141561242557600080368080601f016020809104026020016040519081016040528093929190818152602001838380828437600081840152601f19601f820116905080830192505050505050509050600080369050905073ffffffffffffffffffffffffffffffffffffffff818301511692505050612429565b3390505b90565b60007f80ac58cd000000000000000000000000000000000000000000000000000000007bffffffffffffffffffffffffffffffffffffffffffffffffffffffff1916827bffffffffffffffffffffffffffffffffffffffffffffffffffffffff191614806124f757507f5b5e139f000000000000000000000000000000000000000000000000000000007bffffffffffffffffffffffffffffffffffffffffffffffffffffffff1916827bffffffffffffffffffffffffffffffffffffffffffffffffffffffff1916145b80612507575061250682612f2d565b5b9050919050565b60008073ffffffffffffffffffffffffffffffffffffffff166002600084815260200190815260200160002060009054906101000a900473ffffffffffffffffffffffffffffffffffffffff1673ffffffffffffffffffffffffffffffffffffffff1614159050919050565b600061258461237b565b905090565b816004600083815260200190815260200160002060006101000a81548173ffffffffffffffffffffffffffffffffffffffff021916908373ffffffffffffffffffffffffffffffffffffffff160217905550808273ffffffffffffffffffffffffffffffffffffffff166125fc83611500565b73ffffffffffffffffffffffffffffffffffffffff167f8c5be1e5ebec7d5bd14f71427d1e84f3dd0314c0f7b2291e5b200ac8c7c3b92560405160405180910390a45050565b60008073ffffffffffffffffffffffffffffffffffffffff168673ffffffffffffffffffffffffffffffffffffffff1614156126b3576040517f08c379a00000000000000000000000000000000000000000000000000000000081526004016126aa906146a9565b60405180910390fd5b60016126c66126c187612f97565b612fff565b838686604051600081526020016040526040516126e694939291906144c0565b6020604051602081039080840390855afa158015612708573d6000803e3d6000fd5b5050506020604051035173ffffffffffffffffffffffffffffffffffffffff168673ffffffffffffffffffffffffffffffffffffffff1614905095945050505050565b600081836127599190614a67565b905092915050565b600061276c8261250e565b6127ab576040517f08c379a00000000000000000000000000000000000000000000000000000000081526004016127a290614689565b60405180910390fd5b60006127b683611500565b90508073ffffffffffffffffffffffffffffffffffffffff168473ffffffffffffffffffffffffffffffffffffffff16148061282557508373ffffffffffffffffffffffffffffffffffffffff1661280d84610a01565b73ffffffffffffffffffffffffffffffffffffffff16145b80612836575061283581856121ef565b5b91505092915050565b8273ffffffffffffffffffffffffffffffffffffffff1661285f82611500565b73ffffffffffffffffffffffffffffffffffffffff16146128b5576040517f08c379a00000000000000000000000000000000000000000000000000000000081526004016128ac906147c9565b60405180910390fd5b600073ffffffffffffffffffffffffffffffffffffffff168273ffffffffffffffffffffffffffffffffffffffff161415612925576040517f08c379a000000000000000000000000000000000000000000000000000000000815260040161291c90614649565b60405180910390fd5b612930838383613038565b61293b600082612589565b6001600360008573ffffffffffffffffffffffffffffffffffffffff1673ffffffffffffffffffffffffffffffffffffffff168152602001908152602001600020600082825461298b9190614b48565b925050819055506001600360008473ffffffffffffffffffffffffffffffffffffffff1673ffffffffffffffffffffffffffffffffffffffff16815260200190815260200160002060008282546129e29190614a67565b92505081905550816002600083815260200190815260200160002060006101000a81548173ffffffffffffffffffffffffffffffffffffffff021916908373ffffffffffffffffffffffffffffffffffffffff160217905550808273ffffffffffffffffffffffffffffffffffffffff168473ffffffffffffffffffffffffffffffffffffffff167fddf252ad1be2c89b69c2b068fc378daa952ba7f163c4a11628f55a4df523b3ef60405160405180910390a4505050565b600081600001549050919050565b60006001612ab7600e612a9b565b612ac19190614a67565b905090565b600073ffffffffffffffffffffffffffffffffffffffff168273ffffffffffffffffffffffffffffffffffffffff161415612b36576040517f08c379a0000000000000000000000000000000000000000000000000000000008152600401612b2d90614769565b60405180910390fd5b612b3f8161250e565b15612b7f576040517f08c379a0000000000000000000000000000000000000000000000000000000008152600401612b7690614629565b60405180910390fd5b612b8b60008383613038565b6001600360008473ffffffffffffffffffffffffffffffffffffffff1673ffffffffffffffffffffffffffffffffffffffff1681526020019081526020016000206000828254612bdb9190614a67565b92505081905550816002600083815260200190815260200160002060006101000a81548173ffffffffffffffffffffffffffffffffffffffff021916908373ffffffffffffffffffffffffffffffffffffffff160217905550808273ffffffffffffffffffffffffffffffffffffffff16600073ffffffffffffffffffffffffffffffffffffffff167fddf252ad1be2c89b69c2b068fc378daa952ba7f163c4a11628f55a4df523b3ef60405160405180910390a45050565b6001816000016000828254019250508190555050565b6000600d60009054906101000a900473ffffffffffffffffffffffffffffffffffffffff16905081600d60006101000a81548173ffffffffffffffffffffffffffffffffffffffff021916908373ffffffffffffffffffffffffffffffffffffffff1602179055508173ffffffffffffffffffffffffffffffffffffffff168173ffffffffffffffffffffffffffffffffffffffff167f8be0079c531659141344cd1fd0a4f28419497f9722a3daafe3b4186f6b6457e060405160405180910390a35050565b612d7b84848461283f565b612d878484848461314c565b612dc6576040517f08c379a0000000000000000000000000000000000000000000000000000000008152600401612dbd906145c9565b60405180910390fd5b50505050565b60606000821415612e14576040518060400160405280600181526020017f30000000000000000000000000000000000000000000000000000000000000008152509050612f28565b600082905060005b60008214612e46578080612e2f90614cbe565b915050600a82612e3f9190614abd565b9150612e1c565b60008167ffffffffffffffff811115612e6257612e61614e51565b5b6040519080825280601f01601f191660200182016040528015612e945781602001600182028036833780820191505090505b5090505b60008514612f2157600182612ead9190614b48565b9150600a85612ebc9190614d35565b6030612ec89190614a67565b60f81b818381518110612ede57612edd614e22565b5b60200101907effffffffffffffffffffffffffffffffffffffffffffffffffffffffffffff1916908160001a905350600a85612f1a9190614abd565b9450612e98565b8093505050505b919050565b60007f01ffc9a7000000000000000000000000000000000000000000000000000000007bffffffffffffffffffffffffffffffffffffffffffffffffffffffff1916827bffffffffffffffffffffffffffffffffffffffffffffffffffffffff1916149050919050565b60006040518060800160405280604381526020016156c7604391398051906020012082600001518360200151846040015180519060200120604051602001612fe2949392919061447b565b604051602081830303815290604052805190602001209050919050565b6000613009610e56565b8260405160200161301b929190614347565b604051602081830303815290604052805190602001209050919050565b6130438383836132e3565b600073ffffffffffffffffffffffffffffffffffffffff168373ffffffffffffffffffffffffffffffffffffffff16141561308657613081816132e8565b6130c5565b8173ffffffffffffffffffffffffffffffffffffffff168373ffffffffffffffffffffffffffffffffffffffff16146130c4576130c38382613331565b5b5b600073ffffffffffffffffffffffffffffffffffffffff168273ffffffffffffffffffffffffffffffffffffffff161415613108576131038161349e565b613147565b8273ffffffffffffffffffffffffffffffffffffffff168273ffffffffffffffffffffffffffffffffffffffff161461314657613145828261356f565b5b5b505050565b600061316d8473ffffffffffffffffffffffffffffffffffffffff166135ee565b156132d6578373ffffffffffffffffffffffffffffffffffffffff1663150b7a0261319661257a565b8786866040518563ffffffff1660e01b81526004016131b894939291906143d7565b602060405180830381600087803b1580156131d257600080fd5b505af192505050801561320357506040513d601f19601f820116820180604052508101906132009190613b41565b60015b613286573d8060008114613233576040519150601f19603f3d011682016040523d82523d6000602084013e613238565b606091505b5060008151141561327e576040517f08c379a0000000000000000000000000000000000000000000000000000000008152600401613275906145c9565b60405180910390fd5b805181602001fd5b63150b7a0260e01b7bffffffffffffffffffffffffffffffffffffffffffffffffffffffff1916817bffffffffffffffffffffffffffffffffffffffffffffffffffffffff1916149150506132db565b600190505b949350505050565b505050565b6008805490506009600083815260200190815260200160002081905550600881908060018154018082558091505060019003906000526020600020016000909190919091505550565b6000600161333e846115b2565b6133489190614b48565b905060006007600084815260200190815260200160002054905081811461342d576000600660008673ffffffffffffffffffffffffffffffffffffffff1673ffffffffffffffffffffffffffffffffffffffff168152602001908152602001600020600084815260200190815260200160002054905080600660008773ffffffffffffffffffffffffffffffffffffffff1673ffffffffffffffffffffffffffffffffffffffff168152602001908152602001600020600084815260200190815260200160002081905550816007600083815260200190815260200160002081905550505b6007600084815260200190815260200160002060009055600660008573ffffffffffffffffffffffffffffffffffffffff1673ffffffffffffffffffffffffffffffffffffffff16815260200190815260200160002060008381526020019081526020016000206000905550505050565b600060016008805490506134b29190614b48565b90506000600960008481526020019081526020016000205490506000600883815481106134e2576134e1614e22565b5b90600052602060002001549050806008838154811061350457613503614e22565b5b90600052602060002001819055508160096000838152602001908152602001600020819055506009600085815260200190815260200160002060009055600880548061355357613552614df3565b5b6001900381819060005260206000200160009055905550505050565b600061357a836115b2565b905081600660008573ffffffffffffffffffffffffffffffffffffffff1673ffffffffffffffffffffffffffffffffffffffff168152602001908152602001600020600083815260200190815260200160002081905550806007600084815260200190815260200160002081905550505050565b600080823b905060008111915050919050565b82805461360d90614c5b565b90600052602060002090601f01602090048101928261362f5760008555613676565b82601f1061364857805160ff1916838001178555613676565b82800160010185558215613676579182015b8281111561367557825182559160200191906001019061365a565b5b5090506136839190613687565b5090565b5b808211156136a0576000816000905550600101613688565b5090565b60006136b76136b284614969565b614944565b9050828152602081018484840111156136d3576136d2614e8f565b5b6136de848285614c19565b509392505050565b60006136f96136f48461499a565b614944565b90508281526020810184848401111561371557613714614e8f565b5b613720848285614c19565b509392505050565b6000813590506137378161563c565b92915050565b60008083601f84011261375357613752614e85565b5b8235905067ffffffffffffffff8111156137705761376f614e80565b5b60208301915083602082028301111561378c5761378b614e8a565b5b9250929050565b6000813590506137a281615653565b92915050565b6000813590506137b78161566a565b92915050565b6000813590506137cc81615681565b92915050565b6000815190506137e181615681565b92915050565b600082601f8301126137fc576137fb614e85565b5b813561380c8482602086016136a4565b91505092915050565b600082601f83011261382a57613829614e85565b5b813561383a8482602086016136e6565b91505092915050565b60008135905061385281615698565b92915050565b600081359050613867816156af565b92915050565b60006020828403121561388357613882614e99565b5b600061389184828501613728565b91505092915050565b600080604083850312156138b1576138b0614e99565b5b60006138bf85828601613728565b92505060206138d085828601613728565b9150509250929050565b6000806000606084860312156138f3576138f2614e99565b5b600061390186828701613728565b935050602061391286828701613728565b925050604061392386828701613843565b9150509250925092565b6000806000806080858703121561394757613946614e99565b5b600061395587828801613728565b945050602061396687828801613728565b935050604061397787828801613843565b925050606085013567ffffffffffffffff81111561399857613997614e94565b5b6139a4878288016137e7565b91505092959194509250565b600080604083850312156139c7576139c6614e99565b5b60006139d585828601613728565b92505060206139e685828601613793565b9150509250929050565b600080600080600060a08688031215613a0c57613a0b614e99565b5b6000613a1a88828901613728565b955050602086013567ffffffffffffffff811115613a3b57613a3a614e94565b5b613a47888289016137e7565b9450506040613a58888289016137a8565b9350506060613a69888289016137a8565b9250506080613a7a88828901613858565b9150509295509295909350565b60008060408385031215613a9e57613a9d614e99565b5b6000613aac85828601613728565b9250506020613abd85828601613843565b9150509250929050565b60008060208385031215613ade57613add614e99565b5b600083013567ffffffffffffffff811115613afc57613afb614e94565b5b613b088582860161373d565b92509250509250929050565b600060208284031215613b2a57613b29614e99565b5b6000613b38848285016137bd565b91505092915050565b600060208284031215613b5757613b56614e99565b5b6000613b65848285016137d2565b91505092915050565b600060208284031215613b8457613b83614e99565b5b600082013567ffffffffffffffff811115613ba257613ba1614e94565b5b613bae84828501613815565b91505092915050565b600060208284031215613bcd57613bcc614e99565b5b6000613bdb84828501613843565b91505092915050565b60008060408385031215613bfb57613bfa614e99565b5b6000613c0985828601613843565b9250506020613c1a85828601613728565b9150509250929050565b6000613c3083836142b7565b60208301905092915050565b613c4581614b8e565b82525050565b613c5481614b7c565b82525050565b613c6b613c6682614b7c565b614d07565b82525050565b6000613c7c826149f0565b613c868185614a1e565b9350613c91836149cb565b8060005b83811015613cc2578151613ca98882613c24565b9750613cb483614a11565b925050600181019050613c95565b5085935050505092915050565b613cd881614ba0565b82525050565b613ce781614bac565b82525050565b613cfe613cf982614bac565b614d19565b82525050565b6000613d0f826149fb565b613d198185614a2f565b9350613d29818560208601614c28565b613d3281614e9e565b840191505092915050565b6000613d48826149fb565b613d528185614a40565b9350613d62818560208601614c28565b80840191505092915050565b6000613d7982614a06565b613d838185614a4b565b9350613d93818560208601614c28565b613d9c81614e9e565b840191505092915050565b6000613db282614a06565b613dbc8185614a5c565b9350613dcc818560208601614c28565b80840191505092915050565b60008154613de581614c5b565b613def8186614a5c565b94506001821660008114613e0a5760018114613e1b57613e4e565b60ff19831686528186019350613e4e565b613e24856149db565b60005b83811015613e4657815481890152600182019150602081019050613e27565b838801955050505b50505092915050565b6000613e64601d83614a4b565b9150613e6f82614ebc565b602082019050919050565b6000613e87601883614a4b565b9150613e9282614ee5565b602082019050919050565b6000613eaa602b83614a4b565b9150613eb582614f0e565b604082019050919050565b6000613ecd601783614a4b565b9150613ed882614f5d565b602082019050919050565b6000613ef0603283614a4b565b9150613efb82614f86565b604082019050919050565b6000613f13602683614a4b565b9150613f1e82614fd5565b604082019050919050565b6000613f36601c83614a4b565b9150613f4182615024565b602082019050919050565b6000613f59601c83614a4b565b9150613f648261504d565b602082019050919050565b6000613f7c600283614a5c565b9150613f8782615076565b600282019050919050565b6000613f9f602483614a4b565b9150613faa8261509f565b604082019050919050565b6000613fc2601983614a4b565b9150613fcd826150ee565b602082019050919050565b6000613fe5602c83614a4b565b9150613ff082615117565b604082019050919050565b6000614008602583614a4b565b915061401382615166565b604082019050919050565b600061402b603883614a4b565b9150614036826151b5565b604082019050919050565b600061404e602a83614a4b565b915061405982615204565b604082019050919050565b6000614071602a83614a4b565b915061407c82615253565b604082019050919050565b6000614094602983614a4b565b915061409f826152a2565b604082019050919050565b60006140b7600b83614a4b565b91506140c2826152f1565b602082019050919050565b60006140da602083614a4b565b91506140e58261531a565b602082019050919050565b60006140fd602c83614a4b565b915061410882615343565b604082019050919050565b6000614120602083614a4b565b915061412b82615392565b602082019050919050565b6000614143602983614a4b565b915061414e826153bb565b604082019050919050565b6000614166602183614a4b565b91506141718261540a565b604082019050919050565b6000614189602183614a4b565b915061419482615459565b604082019050919050565b60006141ac600e83614a4b565b91506141b7826154a8565b602082019050919050565b60006141cf601683614a4b565b91506141da826154d1565b602082019050919050565b60006141f2601083614a4b565b91506141fd826154fa565b602082019050919050565b6000614215603183614a4b565b915061422082615523565b604082019050919050565b6000614238602c83614a4b565b915061424382615572565b604082019050919050565b600061425b601283614a4b565b9150614266826155c1565b602082019050919050565b600061427e601383614a4b565b9150614289826155ea565b602082019050919050565b60006142a1601a83614a4b565b91506142ac82615613565b602082019050919050565b6142c081614c02565b82525050565b6142cf81614c02565b82525050565b6142de81614c0c565b82525050565b60006142f08284613d3d565b915081905092915050565b60006143078285613d3d565b91506143138284613c5a565b6014820191508190509392505050565b600061432f8285613dd8565b915061433b8284613da7565b91508190509392505050565b600061435282613f6f565b915061435e8285613ced565b60208201915061436e8284613ced565b6020820191508190509392505050565b60006020820190506143936000830184613c4b565b92915050565b60006060820190506143ae6000830186613c4b565b6143bb6020830185613c3c565b81810360408301526143cd8184613d04565b9050949350505050565b60006080820190506143ec6000830187613c4b565b6143f96020830186613c4b565b61440660408301856142c6565b81810360608301526144188184613d04565b905095945050505050565b6000602082019050818103600083015261443d8184613c71565b905092915050565b600060208201905061445a6000830184613ccf565b92915050565b60006020820190506144756000830184613cde565b92915050565b60006080820190506144906000830187613cde565b61449d60208301866142c6565b6144aa6040830185613c4b565b6144b76060830184613cde565b95945050505050565b60006080820190506144d56000830187613cde565b6144e260208301866142d5565b6144ef6040830185613cde565b6144fc6060830184613cde565b95945050505050565b6000602082019050818103600083015261451f8184613d04565b905092915050565b600060208201905081810360008301526145418184613d6e565b905092915050565b6000602082019050818103600083015261456281613e57565b9050919050565b6000602082019050818103600083015261458281613e7a565b9050919050565b600060208201905081810360008301526145a281613e9d565b9050919050565b600060208201905081810360008301526145c281613ec0565b9050919050565b600060208201905081810360008301526145e281613ee3565b9050919050565b6000602082019050818103600083015261460281613f06565b9050919050565b6000602082019050818103600083015261462281613f29565b9050919050565b6000602082019050818103600083015261464281613f4c565b9050919050565b6000602082019050818103600083015261466281613f92565b9050919050565b6000602082019050818103600083015261468281613fb5565b9050919050565b600060208201905081810360008301526146a281613fd8565b9050919050565b600060208201905081810360008301526146c281613ffb565b9050919050565b600060208201905081810360008301526146e28161401e565b9050919050565b6000602082019050818103600083015261470281614041565b9050919050565b6000602082019050818103600083015261472281614064565b9050919050565b6000602082019050818103600083015261474281614087565b9050919050565b60006020820190508181036000830152614762816140aa565b9050919050565b60006020820190508181036000830152614782816140cd565b9050919050565b600060208201905081810360008301526147a2816140f0565b9050919050565b600060208201905081810360008301526147c281614113565b9050919050565b600060208201905081810360008301526147e281614136565b9050919050565b6000602082019050818103600083015261480281614159565b9050919050565b600060208201905081810360008301526148228161417c565b9050919050565b600060208201905081810360008301526148428161419f565b9050919050565b60006020820190508181036000830152614862816141c2565b9050919050565b60006020820190508181036000830152614882816141e5565b9050919050565b600060208201905081810360008301526148a281614208565b9050919050565b600060208201905081810360008301526148c28161422b565b9050919050565b600060208201905081810360008301526148e28161424e565b9050919050565b6000602082019050818103600083015261490281614271565b9050919050565b6000602082019050818103600083015261492281614294565b9050919050565b600060208201905061493e60008301846142c6565b92915050565b600061494e61495f565b905061495a8282614c8d565b919050565b6000604051905090565b600067ffffffffffffffff82111561498457614983614e51565b5b61498d82614e9e565b9050602081019050919050565b600067ffffffffffffffff8211156149b5576149b4614e51565b5b6149be82614e9e565b9050602081019050919050565b6000819050602082019050919050565b60008190508160005260206000209050919050565b600081519050919050565b600081519050919050565b600081519050919050565b6000602082019050919050565b600082825260208201905092915050565b600082825260208201905092915050565b600081905092915050565b600082825260208201905092915050565b600081905092915050565b6000614a7282614c02565b9150614a7d83614c02565b9250827fffffffffffffffffffffffffffffffffffffffffffffffffffffffffffffffff03821115614ab257614ab1614d66565b5b828201905092915050565b6000614ac882614c02565b9150614ad383614c02565b925082614ae357614ae2614d95565b5b828204905092915050565b6000614af982614c02565b9150614b0483614c02565b9250817fffffffffffffffffffffffffffffffffffffffffffffffffffffffffffffffff0483118215151615614b3d57614b3c614d66565b5b828202905092915050565b6000614b5382614c02565b9150614b5e83614c02565b925082821015614b7157614b70614d66565b5b828203905092915050565b6000614b8782614be2565b9050919050565b6000614b9982614be2565b9050919050565b60008115159050919050565b6000819050919050565b60007fffffffff0000000000000000000000000000000000000000000000000000000082169050919050565b600073ffffffffffffffffffffffffffffffffffffffff82169050919050565b6000819050919050565b600060ff82169050919050565b82818337600083830152505050565b60005b83811015614c46578082015181840152602081019050614c2b565b83811115614c55576000848401525b50505050565b60006002820490506001821680614c7357607f821691505b60208210811415614c8757614c86614dc4565b5b50919050565b614c9682614e9e565b810181811067ffffffffffffffff82111715614cb557614cb4614e51565b5b80604052505050565b6000614cc982614c02565b91507fffffffffffffffffffffffffffffffffffffffffffffffffffffffffffffffff821415614cfc57614cfb614d66565b5b600182019050919050565b6000614d1282614d23565b9050919050565b6000819050919050565b6000614d2e82614eaf565b9050919050565b6000614d4082614c02565b9150614d4b83614c02565b925082614d5b57614d5a614d95565b5b828206905092915050565b7f4e487b7100000000000000000000000000000000000000000000000000000000600052601160045260246000fd5b7f4e487b7100000000000000000000000000000000000000000000000000000000600052601260045260246000fd5b7f4e487b7100000000000000000000000000000000000000000000000000000000600052602260045260246000fd5b7f4e487b7100000000000000000000000000000000000000000000000000000000600052603160045260246000fd5b7f4e487b7100000000000000000000000000000000000000000000000000000000600052603260045260246000fd5b7f4e487b7100000000000000000000000000000000000000000000000000000000600052604160045260246000fd5b600080fd5b600080fd5b600080fd5b600080fd5b600080fd5b600080fd5b6000601f19601f8301169050919050565b60008160601b9050919050565b7f41646472657373206e6f7420666f756e6420666f72206d696e74696e67000000600082015250565b7f41626f7665206d6178206d696e74206c696d6974202d32300000000000000000600082015250565b7f455243373231456e756d657261626c653a206f776e657220696e646578206f7560008201527f74206f6620626f756e6473000000000000000000000000000000000000000000602082015250565b7f4d696e74696e6720746f204e756c6c2061646472657373000000000000000000600082015250565b7f4552433732313a207472616e7366657220746f206e6f6e20455243373231526560008201527f63656976657220696d706c656d656e7465720000000000000000000000000000602082015250565b7f4f776e61626c653a206e6577206f776e657220697320746865207a65726f206160008201527f6464726573730000000000000000000000000000000000000000000000000000602082015250565b7f46756e6374696f6e2063616c6c206e6f74207375636365737366756c00000000600082015250565b7f4552433732313a20746f6b656e20616c7265616479206d696e74656400000000600082015250565b7f1901000000000000000000000000000000000000000000000000000000000000600082015250565b7f4552433732313a207472616e7366657220746f20746865207a65726f2061646460008201527f7265737300000000000000000000000000000000000000000000000000000000602082015250565b7f4552433732313a20617070726f766520746f2063616c6c657200000000000000600082015250565b7f4552433732313a206f70657261746f7220717565727920666f72206e6f6e657860008201527f697374656e7420746f6b656e0000000000000000000000000000000000000000602082015250565b7f4e61746976654d6574615472616e73616374696f6e3a20494e56414c49445f5360008201527f49474e4552000000000000000000000000000000000000000000000000000000602082015250565b7f4552433732313a20617070726f76652063616c6c6572206973206e6f74206f7760008201527f6e6572206e6f7220617070726f76656420666f7220616c6c0000000000000000602082015250565b7f41697264726f70206d696e74696e672077696c6c20657863656564206d61786960008201527f6d756d20737570706c7900000000000000000000000000000000000000000000602082015250565b7f4552433732313a2062616c616e636520717565727920666f7220746865207a6560008201527f726f206164647265737300000000000000000000000000000000000000000000602082015250565b7f4552433732313a206f776e657220717565727920666f72206e6f6e657869737460008201527f656e7420746f6b656e0000000000000000000000000000000000000000000000602082015250565b7f416c6c20436c61696d6564000000000000000000000000000000000000000000600082015250565b7f4552433732313a206d696e7420746f20746865207a65726f2061646472657373600082015250565b7f4552433732313a20617070726f76656420717565727920666f72206e6f6e657860008201527f697374656e7420746f6b656e0000000000000000000000000000000000000000602082015250565b7f4f776e61626c653a2063616c6c6572206973206e6f7420746865206f776e6572600082015250565b7f4552433732313a207472616e73666572206f6620746f6b656e2074686174206960008201527f73206e6f74206f776e0000000000000000000000000000000000000000000000602082015250565b7f5369676e657220616e64207369676e617475726520646f206e6f74206d61746360008201527f6800000000000000000000000000000000000000000000000000000000000000602082015250565b7f4552433732313a20617070726f76616c20746f2063757272656e74206f776e6560008201527f7200000000000000000000000000000000000000000000000000000000000000602082015250565b7f53616c6573206e6f74206f70656e000000000000000000000000000000000000600082015250565b7f53656e7420416d6f756e74204e6f7420456e6f75676800000000000000000000600082015250565b7f50726573616c65206e6f74206f70656e00000000000000000000000000000000600082015250565b7f4552433732313a207472616e736665722063616c6c6572206973206e6f74206f60008201527f776e6572206e6f7220617070726f766564000000000000000000000000000000602082015250565b7f455243373231456e756d657261626c653a20676c6f62616c20696e646578206f60008201527f7574206f6620626f756e64730000000000000000000000000000000000000000602082015250565b7f4d617820537570706c7920526561636865640000000000000000000000000000600082015250565b7f4d6178206c696d69742065786365656465642e00000000000000000000000000600082015250565b7f4d61782050726573616c6520537570706c792052656163686564000000000000600082015250565b61564581614b7c565b811461565057600080fd5b50565b61565c81614ba0565b811461566757600080fd5b50565b61567381614bac565b811461567e57600080fd5b50565b61568a81614bb6565b811461569557600080fd5b50565b6156a181614c02565b81146156ac57600080fd5b50565b6156b881614c0c565b81146156c357600080fd5b5056fe4d6574615472616e73616374696f6e2875696e74323536206e6f6e63652c616464726573732066726f6d2c62797465732066756e6374696f6e5369676e617475726529a264697066735822122085b51392b88dd29edda8dc1b627b11360326b6428532d044537eb575269db3dc64736f6c63430008070033454950373132446f6d61696e28737472696e67206e616d652c737472696e672076657273696f6e2c6164647265737320766572696679696e67436f6e74726163742c627974657333322073616c7429",
  "linkReferences": {},
  "deployedLinkReferences": {}
}